{
    "_format": "hh-sol-artifact-1",
    "contractName": "Artists",
    "sourceName": "contracts/Artists.sol",
    "abi": [
        {
            "inputs": [],
            "name": "AlreadyAnArtistErr",
            "type": "error"
        },
        {
            "inputs": [],
            "name": "OnlyArtistsErr",
            "type": "error"
        },
        {
            "anonymous": false,
            "inputs": [
                {
                    "indexed": false,
                    "internalType": "uint256",
                    "name": "id",
                    "type": "uint256"
                },
                {
                    "indexed": false,
                    "internalType": "uint256",
                    "name": "dateJoined",
                    "type": "uint256"
                },
                {
                    "indexed": false,
                    "internalType": "address",
                    "name": "artistAddress",
                    "type": "address"
                },
                {
                    "indexed": false,
                    "internalType": "string",
                    "name": "artistDetails",
                    "type": "string"
                }
            ],
            "name": "newArtistJoined",
            "type": "event"
        },
        {
            "inputs": [
                {
                    "internalType": "address",
                    "name": "",
                    "type": "address"
                }
            ],
            "name": "addressToArtist",
            "outputs": [
                {
                    "internalType": "uint256",
                    "name": "id",
                    "type": "uint256"
                },
                {
                    "internalType": "uint256",
                    "name": "dateJoined",
                    "type": "uint256"
                },
                {
                    "internalType": "address",
                    "name": "artistAddress",
                    "type": "address"
                },
                {
                    "internalType": "string",
                    "name": "artistDetails",
                    "type": "string"
                }
            ],
            "stateMutability": "view",
            "type": "function"
        },
        {
            "inputs": [],
            "name": "artistCount",
            "outputs": [
                {
                    "internalType": "uint256",
                    "name": "",
                    "type": "uint256"
                }
            ],
            "stateMutability": "view",
            "type": "function"
        },
        {
            "inputs": [
                {
                    "internalType": "uint256",
                    "name": "",
                    "type": "uint256"
                }
            ],
            "name": "artists",
            "outputs": [
                {
                    "internalType": "uint256",
                    "name": "id",
                    "type": "uint256"
                },
                {
                    "internalType": "uint256",
                    "name": "dateJoined",
                    "type": "uint256"
                },
                {
                    "internalType": "address",
                    "name": "artistAddress",
                    "type": "address"
                },
                {
                    "internalType": "string",
                    "name": "artistDetails",
                    "type": "string"
                }
            ],
            "stateMutability": "view",
            "type": "function"
        },
        {
            "inputs": [],
            "name": "checkIfArtist",
            "outputs": [
                {
                    "internalType": "bool",
                    "name": "",
                    "type": "bool"
                }
            ],
            "stateMutability": "view",
            "type": "function"
        },
        {
            "inputs": [],
            "name": "getAllArtists",
            "outputs": [
                {
                    "components": [
                        {
                            "internalType": "uint256",
                            "name": "id",
                            "type": "uint256"
                        },
                        {
                            "internalType": "uint256",
                            "name": "dateJoined",
                            "type": "uint256"
                        },
                        {
                            "internalType": "address",
                            "name": "artistAddress",
                            "type": "address"
                        },
                        {
                            "internalType": "string",
                            "name": "artistDetails",
                            "type": "string"
                        }
                    ],
                    "internalType": "struct Artists.Artist[]",
                    "name": "",
                    "type": "tuple[]"
                }
            ],
            "stateMutability": "view",
            "type": "function"
        },
        {
            "inputs": [
                {
                    "internalType": "uint256",
                    "name": "_artistId",
                    "type": "uint256"
                }
            ],
            "name": "getArtist",
            "outputs": [
                {
                    "components": [
                        {
                            "internalType": "uint256",
                            "name": "id",
                            "type": "uint256"
                        },
                        {
                            "internalType": "uint256",
                            "name": "dateJoined",
                            "type": "uint256"
                        },
                        {
                            "internalType": "address",
                            "name": "artistAddress",
                            "type": "address"
                        },
                        {
                            "internalType": "string",
                            "name": "artistDetails",
                            "type": "string"
                        }
                    ],
                    "internalType": "struct Artists.Artist",
                    "name": "",
                    "type": "tuple"
                }
            ],
            "stateMutability": "view",
            "type": "function"
        },
        {
            "inputs": [
                {
                    "internalType": "address",
                    "name": "",
                    "type": "address"
                }
            ],
            "name": "isArtist",
            "outputs": [
                {
                    "internalType": "bool",
                    "name": "",
                    "type": "bool"
                }
            ],
            "stateMutability": "view",
            "type": "function"
        },
        {
            "inputs": [
                {
                    "internalType": "string",
                    "name": "_artistDetails",
                    "type": "string"
                }
            ],
            "name": "newArtistSignup",
            "outputs": [],
            "stateMutability": "nonpayable",
            "type": "function"
        },
        {
            "inputs": [
                {
                    "internalType": "string",
                    "name": "_newArtistDetails",
                    "type": "string"
                },
                {
                    "internalType": "uint256",
                    "name": "_artistId",
                    "type": "uint256"
                }
            ],
            "name": "updateArtistDetails",
            "outputs": [],
            "stateMutability": "nonpayable",
            "type": "function"
        }
    ],
    "bytecode": "0x608060405234801561001057600080fd5b50610be1806100206000396000f3fe608060405234801561001057600080fd5b50600436106100835760003560e01c80635508c697146100885780636b2f65b01461009d57806374fe2cd8146100d5578063811dd0e2146100ed578063be5304821461010d578063cc85a18714610124578063cd7e10c114610147578063dcbf58bf1461015a578063f803ace31461016d575b600080fd5b61009b610096366004610858565b610182565b005b6100c06100ab366004610894565b60016020526000908152604090205460ff1681565b60405190151581526020015b60405180910390f35b3360009081526001602052604090205460ff166100c0565b6101006100fb3660046108c4565b610387565b6040516100cc919061095e565b61011660005481565b6040519081526020016100cc565b610137610132366004610894565b6104c3565b6040516100cc9493929190610971565b6101376101553660046108c4565b610580565b61009b6101683660046109a8565b6105cf565b61017561069a565b6040516100cc91906109ec565b3360009081526001602081905260409091205460ff16151590036101b9576040516314ca354160e31b815260040160405180910390fd5b60008151116101c757600080fd5b60008054600190810180835560408051608081018252918252426020808401918252338484018181526060860189815291885291869052928620805460ff19168617905560038054958601815590955282517fc2575a0e9e593c00f959f8c92f12db2869c3395a3b0502d05e2516446f71f85b600490950294850190815590517fc2575a0e9e593c00f959f8c92f12db2869c3395a3b0502d05e2516446f71f85c85015593517fc2575a0e9e593c00f959f8c92f12db2869c3395a3b0502d05e2516446f71f85d840180546001600160a01b0319166001600160a01b03909216919091179055519092839290917fc2575a0e9e593c00f959f8c92f12db2869c3395a3b0502d05e2516446f71f85e909101906102e39082610ad6565b505033600090815260026020818152604092839020855181559085015160018201559184015190820180546001600160a01b0319166001600160a01b03909216919091179055606083015183925060038201906103409082610ad6565b509050507f084e9726d8621cec5b0cc5189b3ae44b6ad7a59c579f918937e546356fbb844260005442338560405161037b9493929190610971565b60405180910390a15050565b6103bb6040518060800160405280600081526020016000815260200160006001600160a01b03168152602001606081525090565b600382815481106103ce576103ce610b95565b906000526020600020906004020160405180608001604052908160008201548152602001600182015481526020016002820160009054906101000a90046001600160a01b03166001600160a01b03166001600160a01b0316815260200160038201805461043a90610a4e565b80601f016020809104026020016040519081016040528092919081815260200182805461046690610a4e565b80156104b35780601f10610488576101008083540402835291602001916104b3565b820191906000526020600020905b81548152906001019060200180831161049657829003601f168201915b5050505050815250509050919050565b600260208190526000918252604090912080546001820154928201546003830180549294936001600160a01b03909216926104fd90610a4e565b80601f016020809104026020016040519081016040528092919081815260200182805461052990610a4e565b80156105765780601f1061054b57610100808354040283529160200191610576565b820191906000526020600020905b81548152906001019060200180831161055957829003601f168201915b5050505050905084565b6003818154811061059057600080fd5b6000918252602090912060049091020180546001820154600283015460038401805493955091936001600160a01b03909116929091906104fd90610a4e565b3360009081526001602052604081205460ff16151590036106035760405163ab65b99d60e01b815260040160405180910390fd5b336001600160a01b03166003828154811061062057610620610b95565b60009182526020909120600260049092020101546001600160a01b03161461064757600080fd5b816003828154811061065b5761065b610b95565b906000526020600020906004020160030190816106789190610ad6565b503360009081526002602052604090206003016106958382610ad6565b505050565b60606003805480602002602001604051908101604052809291908181526020016000905b828210156107ad57600084815260209081902060408051608081018252600486029092018054835260018101549383019390935260028301546001600160a01b03169082015260038201805491929160608401919061071c90610a4e565b80601f016020809104026020016040519081016040528092919081815260200182805461074890610a4e565b80156107955780601f1061076a57610100808354040283529160200191610795565b820191906000526020600020905b81548152906001019060200180831161077857829003601f168201915b505050505081525050815260200190600101906106be565b50505050905090565b634e487b7160e01b600052604160045260246000fd5b600082601f8301126107dd57600080fd5b81356001600160401b03808211156107f7576107f76107b6565b604051601f8301601f19908116603f0116810190828211818310171561081f5761081f6107b6565b8160405283815286602085880101111561083857600080fd5b836020870160208301376000602085830101528094505050505092915050565b60006020828403121561086a57600080fd5b81356001600160401b0381111561088057600080fd5b61088c848285016107cc565b949350505050565b6000602082840312156108a657600080fd5b81356001600160a01b03811681146108bd57600080fd5b9392505050565b6000602082840312156108d657600080fd5b5035919050565b6000815180845260005b81811015610903576020818501810151868301820152016108e7565b506000602082860101526020601f19601f83011685010191505092915050565b805182526020810151602083015260018060a01b036040820151166040830152600060608201516080606085015261088c60808501826108dd565b6020815260006108bd6020830184610923565b84815283602082015260018060a01b038316604082015260806060820152600061099e60808301846108dd565b9695505050505050565b600080604083850312156109bb57600080fd5b82356001600160401b038111156109d157600080fd5b6109dd858286016107cc565b95602094909401359450505050565b6000602080830181845280855180835260408601915060408160051b870101925083870160005b82811015610a4157603f19888603018452610a2f858351610923565b94509285019290850190600101610a13565b5092979650505050505050565b600181811c90821680610a6257607f821691505b602082108103610a8257634e487b7160e01b600052602260045260246000fd5b50919050565b601f82111561069557600081815260208120601f850160051c81016020861015610aaf5750805b601f850160051c820191505b81811015610ace57828155600101610abb565b505050505050565b81516001600160401b03811115610aef57610aef6107b6565b610b0381610afd8454610a4e565b84610a88565b602080601f831160018114610b385760008415610b205750858301515b600019600386901b1c1916600185901b178555610ace565b600085815260208120601f198616915b82811015610b6757888601518255948401946001909101908401610b48565b5085821015610b855787850151600019600388901b60f8161c191681555b5050505050600190811b01905550565b634e487b7160e01b600052603260045260246000fdfea2646970667358221220eca4ae38516607757d7b01ed1d8a8f7c9dc3c58dcd7b6f788c070b84b20931c664736f6c63430008120033",
    "linkReferences": {},
    "deployedLinkReferences": {}
}