{
  "_format": "hh-sol-artifact-1",
  "contractName": "Marketplace",
  "sourceName": "contracts/marketplace.sol",
  "abi": [
    {
      "anonymous": false,
      "inputs": [
        {
          "indexed": false,
          "internalType": "uint256",
          "name": "itemId",
          "type": "uint256"
        },
        {
          "indexed": false,
          "internalType": "address",
          "name": "nftContract",
          "type": "address"
        },
        {
          "indexed": false,
          "internalType": "uint256",
          "name": "tokenId",
          "type": "uint256"
        },
        {
          "indexed": false,
          "internalType": "uint256",
          "name": "amount",
          "type": "uint256"
        },
        {
          "indexed": false,
          "internalType": "string",
          "name": "name",
          "type": "string"
        },
        {
          "indexed": false,
          "internalType": "uint256",
          "name": "price",
          "type": "uint256"
        },
        {
          "indexed": false,
          "internalType": "address",
          "name": "seller",
          "type": "address"
        }
      ],
      "name": "ItemAdded",
      "type": "event"
    },
    {
      "anonymous": false,
      "inputs": [
        {
          "indexed": false,
          "internalType": "uint256",
          "name": "itemId",
          "type": "uint256"
        },
        {
          "indexed": false,
          "internalType": "address",
          "name": "buyer",
          "type": "address"
        }
      ],
      "name": "ItemSold",
      "type": "event"
    },
    {
      "anonymous": false,
      "inputs": [
        {
          "indexed": false,
          "internalType": "uint256",
          "name": "itemId",
          "type": "uint256"
        },
        {
          "indexed": false,
          "internalType": "address",
          "name": "seller",
          "type": "address"
        }
      ],
      "name": "ItemUnlisted",
      "type": "event"
    },
    {
      "anonymous": false,
      "inputs": [
        {
          "indexed": true,
          "internalType": "address",
          "name": "previousOwner",
          "type": "address"
        },
        {
          "indexed": true,
          "internalType": "address",
          "name": "newOwner",
          "type": "address"
        }
      ],
      "name": "OwnershipTransferred",
      "type": "event"
    },
    {
      "inputs": [
        {
          "internalType": "address",
          "name": "_nftContract",
          "type": "address"
        },
        {
          "internalType": "uint256",
          "name": "_tokenId",
          "type": "uint256"
        },
        {
          "internalType": "uint256",
          "name": "_amount",
          "type": "uint256"
        },
        {
          "internalType": "uint256",
          "name": "_price",
          "type": "uint256"
        },
        {
          "internalType": "string",
          "name": "_name",
          "type": "string"
        }
      ],
      "name": "addItem",
      "outputs": [],
      "stateMutability": "nonpayable",
      "type": "function"
    },
    {
      "inputs": [
        {
          "internalType": "uint256",
          "name": "_itemId",
          "type": "uint256"
        },
        {
          "internalType": "uint256",
          "name": "_amount",
          "type": "uint256"
        }
      ],
      "name": "buyItem",
      "outputs": [],
      "stateMutability": "payable",
      "type": "function"
    },
    {
      "inputs": [],
      "name": "checkPlatformTotalFees",
      "outputs": [
        {
          "internalType": "uint256",
          "name": "",
          "type": "uint256"
        }
      ],
      "stateMutability": "view",
      "type": "function"
    },
    {
      "inputs": [
        {
          "internalType": "address payable",
          "name": "_toAddress",
          "type": "address"
        }
      ],
      "name": "emergencyWithdrawAll",
      "outputs": [],
      "stateMutability": "nonpayable",
      "type": "function"
    },
    {
      "inputs": [],
      "name": "fees",
      "outputs": [
        {
          "internalType": "uint256",
          "name": "",
          "type": "uint256"
        }
      ],
      "stateMutability": "view",
      "type": "function"
    },
    {
      "inputs": [
        {
          "internalType": "uint256",
          "name": "",
          "type": "uint256"
        }
      ],
      "name": "isItemUnlisted",
      "outputs": [
        {
          "internalType": "bool",
          "name": "",
          "type": "bool"
        }
      ],
      "stateMutability": "view",
      "type": "function"
    },
    {
      "inputs": [],
      "name": "isPaused",
      "outputs": [
        {
          "internalType": "bool",
          "name": "",
          "type": "bool"
        }
      ],
      "stateMutability": "view",
      "type": "function"
    },
    {
      "inputs": [],
      "name": "itemCount",
      "outputs": [
        {
          "internalType": "uint256",
          "name": "",
          "type": "uint256"
        }
      ],
      "stateMutability": "view",
      "type": "function"
    },
    {
      "inputs": [
        {
          "internalType": "uint256",
          "name": "",
          "type": "uint256"
        }
      ],
      "name": "items",
      "outputs": [
        {
          "internalType": "address",
          "name": "nftContract",
          "type": "address"
        },
        {
          "internalType": "uint256",
          "name": "tokenId",
          "type": "uint256"
        },
        {
          "internalType": "uint256",
          "name": "amount",
          "type": "uint256"
        },
        {
          "internalType": "uint256",
          "name": "price",
          "type": "uint256"
        },
        {
          "internalType": "address payable",
          "name": "seller",
          "type": "address"
        },
        {
          "internalType": "string",
          "name": "name",
          "type": "string"
        },
        {
          "internalType": "bool",
          "name": "sold",
          "type": "bool"
        }
      ],
      "stateMutability": "view",
      "type": "function"
    },
    {
      "inputs": [
        {
          "internalType": "address",
          "name": "",
          "type": "address"
        },
        {
          "internalType": "address",
          "name": "",
          "type": "address"
        },
        {
          "internalType": "uint256[]",
          "name": "",
          "type": "uint256[]"
        },
        {
          "internalType": "uint256[]",
          "name": "",
          "type": "uint256[]"
        },
        {
          "internalType": "bytes",
          "name": "",
          "type": "bytes"
        }
      ],
      "name": "onERC1155BatchReceived",
      "outputs": [
        {
          "internalType": "bytes4",
          "name": "",
          "type": "bytes4"
        }
      ],
      "stateMutability": "nonpayable",
      "type": "function"
    },
    {
      "inputs": [
        {
          "internalType": "address",
          "name": "",
          "type": "address"
        },
        {
          "internalType": "address",
          "name": "",
          "type": "address"
        },
        {
          "internalType": "uint256",
          "name": "",
          "type": "uint256"
        },
        {
          "internalType": "uint256",
          "name": "",
          "type": "uint256"
        },
        {
          "internalType": "bytes",
          "name": "",
          "type": "bytes"
        }
      ],
      "name": "onERC1155Received",
      "outputs": [
        {
          "internalType": "bytes4",
          "name": "",
          "type": "bytes4"
        }
      ],
      "stateMutability": "nonpayable",
      "type": "function"
    },
    {
      "inputs": [],
      "name": "owner",
      "outputs": [
        {
          "internalType": "address",
          "name": "",
          "type": "address"
        }
      ],
      "stateMutability": "view",
      "type": "function"
    },
    {
      "inputs": [],
      "name": "pauseMarketPlace",
      "outputs": [],
      "stateMutability": "nonpayable",
      "type": "function"
    },
    {
      "inputs": [],
      "name": "renounceOwnership",
      "outputs": [],
      "stateMutability": "nonpayable",
      "type": "function"
    },
    {
      "inputs": [],
      "name": "resumeMarketPlace",
      "outputs": [],
      "stateMutability": "nonpayable",
      "type": "function"
    },
    {
      "inputs": [
        {
          "internalType": "uint256",
          "name": "_fees",
          "type": "uint256"
        }
      ],
      "name": "setFees",
      "outputs": [],
      "stateMutability": "nonpayable",
      "type": "function"
    },
    {
      "inputs": [
        {
          "internalType": "bytes4",
          "name": "interfaceId",
          "type": "bytes4"
        }
      ],
      "name": "supportsInterface",
      "outputs": [
        {
          "internalType": "bool",
          "name": "",
          "type": "bool"
        }
      ],
      "stateMutability": "view",
      "type": "function"
    },
    {
      "inputs": [
        {
          "internalType": "address",
          "name": "newOwner",
          "type": "address"
        }
      ],
      "name": "transferOwnership",
      "outputs": [],
      "stateMutability": "nonpayable",
      "type": "function"
    },
    {
      "inputs": [
        {
          "internalType": "uint256",
          "name": "_itemId",
          "type": "uint256"
        }
      ],
      "name": "unlistItem",
      "outputs": [],
      "stateMutability": "nonpayable",
      "type": "function"
    },
    {
      "inputs": [
        {
          "internalType": "address payable",
          "name": "_toAddress",
          "type": "address"
        },
        {
          "internalType": "uint256",
          "name": "_amountFees",
          "type": "uint256"
        }
      ],
      "name": "withdrawPlatformFees",
      "outputs": [],
      "stateMutability": "nonpayable",
      "type": "function"
    }
  ],
  "bytecode": "0x608060405234801561001057600080fd5b5061001a3361001f565b61006f565b600080546001600160a01b038381166001600160a01b0319831681178455604051919092169283917f8be0079c531659141344cd1fd0a4f28419497f9722a3daafe3b4186f6b6457e09190a35050565b6119c78061007e6000396000f3fe6080604052600436106100ef5760003560e01c806301ffc9a7146100f45780632d21a464146101295780633d18678e1461014057806354ab6269146101605780635a599da81461018057806364628253146101a05780636bfb0d01146101c0578063715018a6146101e457806377b4aef6146101f95780637e73494a146102195780638da5cb5b146102495780639979c009146102765780639af1d35a14610289578063b187bd261461029f578063bc197c81146102b9578063bfb231d2146102f2578063c3fed64014610325578063e2082e7914610338578063f23a6e611461034d578063f2fde38b1461036d575b600080fd5b34801561010057600080fd5b5061011461010f36600461129f565b61038d565b60405190151581526020015b60405180910390f35b34801561013557600080fd5b5061013e6103c4565b005b34801561014c57600080fd5b5061013e61015b3660046112c9565b610433565b34801561016c57600080fd5b5061013e61017b3660046112f7565b610448565b34801561018c57600080fd5b5061013e61019b3660046112c9565b6104c8565b3480156101ac57600080fd5b5061013e6101bb366004611314565b61065e565b3480156101cc57600080fd5b506101d660035481565b604051908152602001610120565b3480156101f057600080fd5b5061013e6106e7565b34801561020557600080fd5b5061013e6102143660046113dd565b6106fb565b34801561022557600080fd5b506101146102343660046112c9565b60026020526000908152604090205460ff1681565b34801561025557600080fd5b5061025e6109c8565b6040516001600160a01b039091168152602001610120565b61013e61028436600461145d565b6109d7565b34801561029557600080fd5b506101d660055481565b3480156102ab57600080fd5b506004546101149060ff1681565b3480156102c557600080fd5b506102e56102d436600461151e565b63bc197c8160e01b95945050505050565b60405161012091906115be565b3480156102fe57600080fd5b5061031261030d3660046112c9565b610ebc565b6040516101209796959493929190611619565b34801561033157600080fd5b50476101d6565b34801561034457600080fd5b5061013e610f94565b34801561035957600080fd5b506102e561036836600461166c565b610ff6565b34801561037957600080fd5b5061013e6103883660046112f7565b611007565b60006001600160e01b03198216630271189760e51b14806103be57506301ffc9a760e01b6001600160e01b03198316145b92915050565b6103cc61107d565b60045460ff16156104245760405162461bcd60e51b815260206004820152601d60248201527f4d61726b6574706c61636520697320616c72656164792070617573656400000060448201526064015b60405180910390fd5b6004805460ff19166001179055565b61043b61107d565b6104436110dc565b600555565b61045061107d565b476000036104965760405162461bcd60e51b81526020600482015260136024820152725468657265206973206e6f20526576656e756560681b604482015260640161041b565b6001600160a01b0381166104bc5760405162461bcd60e51b815260040161041b906116d4565b6104c581611127565b50565b60008181526001602052604090206006015460ff16156105275760405162461bcd60e51b815260206004820152601a60248201527943616e6e6f7420756e6c69737420736f6c646f7574206974656d60301b604482015260640161041b565b6000818152600160205260409020600201546105935760405162461bcd60e51b815260206004820152602560248201527f4974656d20776974682074686520676976656e20494420646f6573206e6f7420604482015264195e1a5cdd60da1b606482015260840161041b565b6000818152600160205260409020600401546001600160a01b031633146106085760405162461bcd60e51b815260206004820152602360248201527f4f6e6c79207468652073656c6c65722063616e20756e6c69737420746865206960448201526274656d60e81b606482015260840161041b565b60008181526002602052604090819020805460ff19166001179055517f347b7bb4233bc28848861c76967de56cdd64f25608753babc8ee10d3df207f579061065390839033906116fd565b60405180910390a150565b61066661107d565b600047116106865760405162461bcd60e51b815260040161041b90611714565b6001600160a01b0382166106ac5760405162461bcd60e51b815260040161041b906116d4565b6040516001600160a01b0383169082156108fc029083906000818181858888f193505050501580156106e2573d6000803e3d6000fd5b505050565b6106ef61107d565b6106f960006111ad565b565b6107036110dc565b8461070d816111fd565b6107635760405162461bcd60e51b815260206004820152602160248201527f436f6e7472616374206973206e6f74204552433131353520636f6d706c69616e6044820152601d60fa1b606482015260840161041b565b60008411801561077b57506001600160a01b03861615155b6107c25760405162461bcd60e51b8152602060048201526018602482015277496e76616c696420696e70757420706172616d657465727360401b604482015260640161041b565b604051627eeac760e11b81523360048201526024810186905284906001600160a01b0388169062fdd58e90604401602060405180830381865afa15801561080d573d6000803e3d6000fd5b505050506040513d601f19601f820116820180604052508101906108319190611744565b101561088a5760405162461bcd60e51b815260206004820152602260248201527f4f6e6c7920746f6b656e206f776e65722063616e206c69737420666f722073616044820152616c6560f01b606482015260840161041b565b6003805490600061089a83611773565b90915550506040805160e0810182526001600160a01b038089168252602080830189815283850189815260608501898152336080870190815260a087018a8152600060c08901819052600380548252600197889052999020885181549089166001600160a01b031991821617825595519681019690965592516002860155905196840196909655945160048301805491909416911617909155915190919060058201906109479082611814565b5060c091909101516006909101805491151560ff19928316179055600380546000908152600260205260409081902080549093169092555490517f529217d0424b424626c9fb804ff1848ec212722052bd3dc8f65784d3167e9671916109b89189908990899088908a9033906118d3565b60405180910390a1505050505050565b6000546001600160a01b031690565b6109df6110dc565b6000828152600160208181526040808420815160e08101835281546001600160a01b0390811682529482015493810193909352600281015491830191909152600381015460608301526004810154909216608082015260058201805491929160a084019190610a4d9061178c565b80601f0160208091040260200160405190810160405280929190818152602001828054610a799061178c565b8015610ac65780601f10610a9b57610100808354040283529160200191610ac6565b820191906000526020600020905b815481529060010190602001808311610aa957829003601f168201915b50505091835250506006919091015460ff16151560209091015290508115801590610afa575080516001600160a01b031615155b610b3a5760405162461bcd60e51b815260206004820152601160248201527024b73b30b634b2103830b930b6b2ba32b960791b604482015260640161041b565b60008381526002602052604090205460ff16158015610b5b57508060c00151155b610b9a5760405162461bcd60e51b815260206004820152601060248201526f4974656d20556e617661696c61626c6560801b604482015260640161041b565b8181604001511015610bff5760405162461bcd60e51b815260206004820152602860248201527f596f752063616e277420627579206d6f7265207468616e2077686174277320616044820152677661696c61626c6560c01b606482015260840161041b565b600083815260016020526040812060030154610c1b9084611274565b90506000610c35606460055461128790919063ffffffff16565b90506000610c438383611274565b90506000610c518483611293565b905083341015610c985760405162461bcd60e51b8152602060048201526012602482015271496e73756666696369656e742066756e647360701b604482015260640161041b565b8585604001511015610ce15760405162461bcd60e51b8152602060048201526012602482015271496e73756666696369656e742073746f636b60701b604482015260640161041b565b60008781526001602052604081206002018054889290610d02908490611923565b90915550506000878152600160205260408120600201549003610d3f576000878152600160208190526040909120600601805460ff191690911790555b845160808601516020870151604051637921219560e11b81526001600160a01b03928316600482015233602482015260448101919091526064810189905260a06084820152600d60a48201526c151c985b9cd9995c881cd95b9d609a1b60c482015291169063f242432a9060e401600060405180830381600087803b158015610dc757600080fd5b505af1158015610ddb573d6000803e3d6000fd5b5050505083341115610e1f57336108fc610df53487611293565b6040518115909202916000818181858888f19350505050158015610e1d573d6000803e3d6000fd5b505b84608001516001600160a01b03166108fc829081150290604051600060405180830381858888f19350505050158015610e5c573d6000803e3d6000fd5b507f7de4035ced290be6d7724645d43bad448b5d8cc76743ff4da172c2d8e1caa0f58733604051610e8e9291906116fd565b60405180910390a1610eb23033898960405180602001604052806000815250610ff6565b5050505050505050565b60016020819052600091825260409091208054918101546002820154600383015460048401546005850180546001600160a01b03978816979596949593949290931692610f089061178c565b80601f0160208091040260200160405190810160405280929190818152602001828054610f349061178c565b8015610f815780601f10610f5657610100808354040283529160200191610f81565b820191906000526020600020905b815481529060010190602001808311610f6457829003601f168201915b5050506006909301549192505060ff1687565b610f9c61107d565b60045460ff16610fea5760405162461bcd60e51b815260206004820152601960248201527813585c9ad95d1c1b1858d9481a5cc81b9bdd081c185d5cd959603a1b604482015260640161041b565b6004805460ff19169055565b63f23a6e6160e01b95945050505050565b61100f61107d565b6001600160a01b0381166110745760405162461bcd60e51b815260206004820152602660248201527f4f776e61626c653a206e6577206f776e657220697320746865207a65726f206160448201526564647265737360d01b606482015260840161041b565b6104c5816111ad565b336110866109c8565b6001600160a01b0316146106f95760405162461bcd60e51b815260206004820181905260248201527f4f776e61626c653a2063616c6c6572206973206e6f7420746865206f776e6572604482015260640161041b565b60045460ff16156106f95760405162461bcd60e51b815260206004820152601560248201527413585c9ad95d1c1b1858d9481a5cc81c185d5cd959605a1b604482015260640161041b565b61112f61107d565b6000471161114f5760405162461bcd60e51b815260040161041b90611714565b6001600160a01b0381166111755760405162461bcd60e51b815260040161041b906116d4565b60405147906001600160a01b0383169082156108fc029083906000818181858888f193505050501580156106e2573d6000803e3d6000fd5b600080546001600160a01b038381166001600160a01b0319831681178455604051919092169283917f8be0079c531659141344cd1fd0a4f28419497f9722a3daafe3b4186f6b6457e09190a35050565b6040516301ffc9a760e01b81526000906001600160a01b038316906301ffc9a79061123390636cdb3d1360e11b906004016115be565b602060405180830381865afa158015611250573d6000803e3d6000fd5b505050506040513d601f19601f820116820180604052508101906103be9190611936565b60006112808284611958565b9392505050565b6000611280828461196f565b60006112808284611923565b6000602082840312156112b157600080fd5b81356001600160e01b03198116811461128057600080fd5b6000602082840312156112db57600080fd5b5035919050565b6001600160a01b03811681146104c557600080fd5b60006020828403121561130957600080fd5b8135611280816112e2565b6000806040838503121561132757600080fd5b8235611332816112e2565b946020939093013593505050565b634e487b7160e01b600052604160045260246000fd5b604051601f8201601f191681016001600160401b038111828210171561137e5761137e611340565b604052919050565b60006001600160401b0383111561139f5761139f611340565b6113b2601f8401601f1916602001611356565b90508281528383830111156113c657600080fd5b828260208301376000602084830101529392505050565b600080600080600060a086880312156113f557600080fd5b8535611400816112e2565b945060208601359350604086013592506060860135915060808601356001600160401b0381111561143057600080fd5b8601601f8101881361144157600080fd5b61145088823560208401611386565b9150509295509295909350565b6000806040838503121561147057600080fd5b50508035926020909101359150565b600082601f83011261149057600080fd5b813560206001600160401b038211156114ab576114ab611340565b8160051b6114ba828201611356565b92835284810182019282810190878511156114d457600080fd5b83870192505b848310156114f3578235825291830191908301906114da565b979650505050505050565b600082601f83011261150f57600080fd5b61128083833560208501611386565b600080600080600060a0868803121561153657600080fd5b8535611541816112e2565b94506020860135611551816112e2565b935060408601356001600160401b038082111561156d57600080fd5b61157989838a0161147f565b9450606088013591508082111561158f57600080fd5b61159b89838a0161147f565b935060808801359150808211156115b157600080fd5b50611450888289016114fe565b6001600160e01b031991909116815260200190565b6000815180845260005b818110156115f9576020818501810151868301820152016115dd565b506000602082860101526020601f19601f83011685010191505092915050565b600060018060a01b03808a16835288602084015287604084015286606084015280861660808401525060e060a083015261165660e08301856115d3565b905082151560c083015298975050505050505050565b600080600080600060a0868803121561168457600080fd5b853561168f816112e2565b9450602086013561169f816112e2565b9350604086013592506060860135915060808601356001600160401b038111156116c857600080fd5b611450888289016114fe565b6020808252600f908201526e496e76616c6964206164647265737360881b604082015260600190565b9182526001600160a01b0316602082015260400190565b6020808252601690820152754e6f20526576656e756520746f20776974686472617760501b604082015260600190565b60006020828403121561175657600080fd5b5051919050565b634e487b7160e01b600052601160045260246000fd5b6000600182016117855761178561175d565b5060010190565b600181811c908216806117a057607f821691505b6020821081036117c057634e487b7160e01b600052602260045260246000fd5b50919050565b601f8211156106e257600081815260208120601f850160051c810160208610156117ed5750805b601f850160051c820191505b8181101561180c578281556001016117f9565b505050505050565b81516001600160401b0381111561182d5761182d611340565b6118418161183b845461178c565b846117c6565b602080601f831160018114611876576000841561185e5750858301515b600019600386901b1c1916600185901b17855561180c565b600085815260208120601f198616915b828110156118a557888601518255948401946001909101908401611886565b50858210156118c35787850151600019600388901b60f8161c191681555b5050505050600190811b01905550565b878152600060018060a01b03808916602084015287604084015286606084015260e0608084015261190760e08401876115d3565b60a08401959095529290921660c0909101525095945050505050565b818103818111156103be576103be61175d565b60006020828403121561194857600080fd5b8151801515811461128057600080fd5b80820281158282048414176103be576103be61175d565b60008261198c57634e487b7160e01b600052601260045260246000fd5b50049056fea2646970667358221220fea603beb287ac8a04864f7cff851a60a2e4f00c1af0d1b7d8bce9e6fe0ad22464736f6c63430008120033",
  "linkReferences": {},
  "deployedLinkReferences": {}
}